{
  "contractName": "Multi",
  "abi": [
    {
      "inputs": [],
      "stateMutability": "payable",
      "type": "constructor"
    },
    {
      "anonymous": false,
      "inputs": [
        {
          "indexed": true,
          "internalType": "address",
          "name": "owner",
          "type": "address"
        },
        {
          "indexed": true,
          "internalType": "address",
          "name": "approved",
          "type": "address"
        },
        {
          "indexed": true,
          "internalType": "uint256",
          "name": "tokenId",
          "type": "uint256"
        }
      ],
      "name": "Approval",
      "type": "event"
    },
    {
      "anonymous": false,
      "inputs": [
        {
          "indexed": true,
          "internalType": "address",
          "name": "owner",
          "type": "address"
        },
        {
          "indexed": true,
          "internalType": "address",
          "name": "operator",
          "type": "address"
        },
        {
          "indexed": false,
          "internalType": "bool",
          "name": "approved",
          "type": "bool"
        }
      ],
      "name": "ApprovalForAll",
      "type": "event"
    },
    {
      "anonymous": false,
      "inputs": [
        {
          "indexed": true,
          "internalType": "address",
          "name": "from",
          "type": "address"
        },
        {
          "indexed": true,
          "internalType": "address",
          "name": "to",
          "type": "address"
        },
        {
          "indexed": true,
          "internalType": "uint256",
          "name": "tokenId",
          "type": "uint256"
        }
      ],
      "name": "Transfer",
      "type": "event"
    },
    {
      "inputs": [],
      "name": "adminAddress",
      "outputs": [
        {
          "internalType": "address payable",
          "name": "",
          "type": "address"
        }
      ],
      "stateMutability": "view",
      "type": "function"
    },
    {
      "inputs": [
        {
          "internalType": "address",
          "name": "to",
          "type": "address"
        },
        {
          "internalType": "uint256",
          "name": "tokenId",
          "type": "uint256"
        }
      ],
      "name": "approve",
      "outputs": [],
      "stateMutability": "nonpayable",
      "type": "function"
    },
    {
      "inputs": [
        {
          "internalType": "address",
          "name": "owner",
          "type": "address"
        }
      ],
      "name": "balanceOf",
      "outputs": [
        {
          "internalType": "uint256",
          "name": "",
          "type": "uint256"
        }
      ],
      "stateMutability": "view",
      "type": "function"
    },
    {
      "inputs": [],
      "name": "creationFess",
      "outputs": [
        {
          "internalType": "uint256",
          "name": "",
          "type": "uint256"
        }
      ],
      "stateMutability": "view",
      "type": "function"
    },
    {
      "inputs": [
        {
          "internalType": "uint256",
          "name": "tokenId",
          "type": "uint256"
        }
      ],
      "name": "getApproved",
      "outputs": [
        {
          "internalType": "address",
          "name": "",
          "type": "address"
        }
      ],
      "stateMutability": "view",
      "type": "function"
    },
    {
      "inputs": [
        {
          "internalType": "address",
          "name": "owner",
          "type": "address"
        },
        {
          "internalType": "address",
          "name": "operator",
          "type": "address"
        }
      ],
      "name": "isApprovedForAll",
      "outputs": [
        {
          "internalType": "bool",
          "name": "",
          "type": "bool"
        }
      ],
      "stateMutability": "view",
      "type": "function"
    },
    {
      "inputs": [],
      "name": "name",
      "outputs": [
        {
          "internalType": "string",
          "name": "",
          "type": "string"
        }
      ],
      "stateMutability": "view",
      "type": "function"
    },
    {
      "inputs": [
        {
          "internalType": "uint256",
          "name": "tokenId",
          "type": "uint256"
        }
      ],
      "name": "ownerOf",
      "outputs": [
        {
          "internalType": "address",
          "name": "",
          "type": "address"
        }
      ],
      "stateMutability": "view",
      "type": "function"
    },
    {
      "inputs": [],
      "name": "referenceFees",
      "outputs": [
        {
          "internalType": "uint256",
          "name": "",
          "type": "uint256"
        }
      ],
      "stateMutability": "view",
      "type": "function"
    },
    {
      "inputs": [
        {
          "internalType": "address",
          "name": "from",
          "type": "address"
        },
        {
          "internalType": "address",
          "name": "to",
          "type": "address"
        },
        {
          "internalType": "uint256",
          "name": "tokenId",
          "type": "uint256"
        }
      ],
      "name": "safeTransferFrom",
      "outputs": [],
      "stateMutability": "nonpayable",
      "type": "function"
    },
    {
      "inputs": [
        {
          "internalType": "address",
          "name": "from",
          "type": "address"
        },
        {
          "internalType": "address",
          "name": "to",
          "type": "address"
        },
        {
          "internalType": "uint256",
          "name": "tokenId",
          "type": "uint256"
        },
        {
          "internalType": "bytes",
          "name": "_data",
          "type": "bytes"
        }
      ],
      "name": "safeTransferFrom",
      "outputs": [],
      "stateMutability": "nonpayable",
      "type": "function"
    },
    {
      "inputs": [],
      "name": "sellingFess",
      "outputs": [
        {
          "internalType": "uint256",
          "name": "",
          "type": "uint256"
        }
      ],
      "stateMutability": "view",
      "type": "function"
    },
    {
      "inputs": [
        {
          "internalType": "address",
          "name": "operator",
          "type": "address"
        },
        {
          "internalType": "bool",
          "name": "approved",
          "type": "bool"
        }
      ],
      "name": "setApprovalForAll",
      "outputs": [],
      "stateMutability": "nonpayable",
      "type": "function"
    },
    {
      "inputs": [
        {
          "internalType": "bytes4",
          "name": "interfaceId",
          "type": "bytes4"
        }
      ],
      "name": "supportsInterface",
      "outputs": [
        {
          "internalType": "bool",
          "name": "",
          "type": "bool"
        }
      ],
      "stateMutability": "view",
      "type": "function"
    },
    {
      "inputs": [],
      "name": "symbol",
      "outputs": [
        {
          "internalType": "string",
          "name": "",
          "type": "string"
        }
      ],
      "stateMutability": "view",
      "type": "function"
    },
    {
      "inputs": [
        {
          "internalType": "uint256",
          "name": "tokenId",
          "type": "uint256"
        }
      ],
      "name": "tokenURI",
      "outputs": [
        {
          "internalType": "string",
          "name": "",
          "type": "string"
        }
      ],
      "stateMutability": "view",
      "type": "function"
    },
    {
      "inputs": [
        {
          "internalType": "address",
          "name": "from",
          "type": "address"
        },
        {
          "internalType": "address",
          "name": "to",
          "type": "address"
        },
        {
          "internalType": "uint256",
          "name": "tokenId",
          "type": "uint256"
        }
      ],
      "name": "transferFrom",
      "outputs": [],
      "stateMutability": "nonpayable",
      "type": "function"
    },
    {
      "inputs": [
        {
          "internalType": "uint256",
          "name": "_referralFees",
          "type": "uint256"
        }
      ],
      "name": "setreferralFees",
      "outputs": [],
      "stateMutability": "nonpayable",
      "type": "function"
    },
    {
      "inputs": [
        {
          "internalType": "address payable",
          "name": "_adminAdd",
          "type": "address"
        }
      ],
      "name": "setAdminAddress",
      "outputs": [],
      "stateMutability": "nonpayable",
      "type": "function"
    },
    {
      "inputs": [
        {
          "internalType": "uint256",
          "name": "_creationFess",
          "type": "uint256"
        }
      ],
      "name": "setCreatonFees",
      "outputs": [],
      "stateMutability": "nonpayable",
      "type": "function"
    },
    {
      "inputs": [
        {
          "internalType": "uint256",
          "name": "_sellingFess",
          "type": "uint256"
        }
      ],
      "name": "setSellingFees",
      "outputs": [],
      "stateMutability": "nonpayable",
      "type": "function"
    },
    {
      "inputs": [
        {
          "internalType": "string",
          "name": "_tokenURI",
          "type": "string"
        },
        {
          "internalType": "uint256",
          "name": "value",
          "type": "uint256"
        },
        {
          "internalType": "uint256",
          "name": "startId",
          "type": "uint256"
        },
        {
          "internalType": "uint256",
          "name": "endId",
          "type": "uint256"
        },
        {
          "internalType": "uint256",
          "name": "state",
          "type": "uint256"
        },
        {
          "internalType": "address",
          "name": "_paymentCurrency",
          "type": "address"
        }
      ],
      "name": "mintNFT",
      "outputs": [],
      "stateMutability": "payable",
      "type": "function"
    },
    {
      "inputs": [
        {
          "internalType": "uint256",
          "name": "_from",
          "type": "uint256"
        },
        {
          "internalType": "uint256",
          "name": "_to",
          "type": "uint256"
        },
        {
          "internalType": "uint256",
          "name": "_royalties",
          "type": "uint256"
        },
        {
          "internalType": "address payable",
          "name": "artist",
          "type": "address"
        }
      ],
      "name": "buyWithBNB",
      "outputs": [],
      "stateMutability": "payable",
      "type": "function"
    },
    {
      "inputs": [
        {
          "internalType": "uint256",
          "name": "_from",
          "type": "uint256"
        },
        {
          "internalType": "uint256",
          "name": "_to",
          "type": "uint256"
        },
        {
          "internalType": "uint256",
          "name": "_royalties",
          "type": "uint256"
        },
        {
          "internalType": "uint256",
          "name": "buyAmount",
          "type": "uint256"
        },
        {
          "internalType": "address",
          "name": "paymentCurrency",
          "type": "address"
        },
        {
          "internalType": "address payable",
          "name": "_artist",
          "type": "address"
        }
      ],
      "name": "buyWithTokens",
      "outputs": [],
      "stateMutability": "nonpayable",
      "type": "function"
    },
    {
      "inputs": [
        {
          "internalType": "uint256",
          "name": "tokenId",
          "type": "uint256"
        },
        {
          "internalType": "address payable",
          "name": "artist",
          "type": "address"
        },
        {
          "internalType": "uint256",
          "name": "_royalties",
          "type": "uint256"
        }
      ],
      "name": "claimAmount",
      "outputs": [
        {
          "internalType": "bool",
          "name": "",
          "type": "bool"
        }
      ],
      "stateMutability": "payable",
      "type": "function"
    }
  ],
  "bytecode": "0x60806040526000600a556001600b556000600c60006101000a81548160ff0219169083151502179055506040518060400160405280600581526020017f4d756c74690000000000000000000000000000000000000000000000000000008152506040518060400160405280600581526020017f4d756c74690000000000000000000000000000000000000000000000000000008152508160009080519060200190620000ad92919062000118565b508060019080519060200190620000c692919062000118565b50505033600860006101000a81548173ffffffffffffffffffffffffffffffffffffffff021916908373ffffffffffffffffffffffffffffffffffffffff16021790555060056009819055506200022d565b8280546200012690620001f7565b90600052602060002090601f0160209004810192826200014a576000855562000196565b82601f106200016557805160ff191683800117855562000196565b8280016001018555821562000196579182015b828111156200019557825182559160200191906001019062000178565b5b509050620001a59190620001a9565b5090565b5b80821115620001c4576000816000905550600101620001aa565b5090565b7f4e487b7100000000000000000000000000000000000000000000000000000000600052602260045260246000fd5b600060028204905060018216806200021057607f821691505b60208210811415620002275762000226620001c8565b5b50919050565b613ef8806200023d6000396000f3fe6080604052600436106101665760003560e01c8063863d4f5c116100d1578063c067ccca1161008a578063c87b56dd11610064578063c87b56dd1461050d578063d1b5c1ba1461054a578063e985e9c514610575578063fc6f9468146105b257610166565b8063c067ccca14610498578063c18bc5b8146104c1578063c873f4c6146104dd57610166565b8063863d4f5c146103ab578063916642f7146103c757806395d89b41146103f0578063a22cb4651461041b578063b88d4fde14610444578063bc73de351461046d57610166565b80632c1e816d116101235780632c1e816d1461028b57806342842e0e146102b45780634873ed53146102dd5780635ebb5a65146103085780636352211e1461033157806370a082311461036e57610166565b806301ffc9a71461016b57806306fdde03146101a8578063081812fc146101d3578063095ea7b31461021057806323b872dd146102395780632b8ed3de14610262575b600080fd5b34801561017757600080fd5b50610192600480360381019061018d9190612733565b6105dd565b60405161019f919061277b565b60405180910390f35b3480156101b457600080fd5b506101bd6106bf565b6040516101ca919061282f565b60405180910390f35b3480156101df57600080fd5b506101fa60048036038101906101f59190612887565b610751565b60405161020791906128f5565b60405180910390f35b34801561021c57600080fd5b506102376004803603810190610232919061293c565b6107d6565b005b34801561024557600080fd5b50610260600480360381019061025b919061297c565b6108ee565b005b34801561026e57600080fd5b5061028960048036038101906102849190612a0d565b61094e565b005b34801561029757600080fd5b506102b260048036038101906102ad9190612a9a565b6109e1565b005b3480156102c057600080fd5b506102db60048036038101906102d6919061297c565b610ab5565b005b3480156102e957600080fd5b506102f2610ad5565b6040516102ff9190612ad6565b60405180910390f35b34801561031457600080fd5b5061032f600480360381019061032a9190612887565b610adb565b005b34801561033d57600080fd5b5061035860048036038101906103539190612887565b610b75565b60405161036591906128f5565b60405180910390f35b34801561037a57600080fd5b5061039560048036038101906103909190612af1565b610c27565b6040516103a29190612ad6565b60405180910390f35b6103c560048036038101906103c09190612c53565b610cdf565b005b3480156103d357600080fd5b506103ee60048036038101906103e99190612887565b610fa4565b005b3480156103fc57600080fd5b5061040561103e565b604051610412919061282f565b60405180910390f35b34801561042757600080fd5b50610442600480360381019061043d9190612d28565b6110d0565b005b34801561045057600080fd5b5061046b60048036038101906104669190612e09565b611251565b005b34801561047957600080fd5b506104826112b3565b60405161048f9190612ad6565b60405180910390f35b3480156104a457600080fd5b506104bf60048036038101906104ba9190612887565b6112b9565b005b6104db60048036038101906104d69190612e8c565b611353565b005b6104f760048036038101906104f29190612ef3565b6113e2565b604051610504919061277b565b60405180910390f35b34801561051957600080fd5b50610534600480360381019061052f9190612887565b61155d565b604051610541919061282f565b60405180910390f35b34801561055657600080fd5b5061055f6116af565b60405161056c9190612ad6565b60405180910390f35b34801561058157600080fd5b5061059c60048036038101906105979190612f46565b6116b5565b6040516105a9919061277b565b60405180910390f35b3480156105be57600080fd5b506105c7611749565b6040516105d49190612f95565b60405180910390f35b60007f80ac58cd000000000000000000000000000000000000000000000000000000007bffffffffffffffffffffffffffffffffffffffffffffffffffffffff1916827bffffffffffffffffffffffffffffffffffffffffffffffffffffffff191614806106a857507f5b5e139f000000000000000000000000000000000000000000000000000000007bffffffffffffffffffffffffffffffffffffffffffffffffffffffff1916827bffffffffffffffffffffffffffffffffffffffffffffffffffffffff1916145b806106b857506106b78261176f565b5b9050919050565b6060600080546106ce90612fdf565b80601f01602080910402602001604051908101604052809291908181526020018280546106fa90612fdf565b80156107475780601f1061071c57610100808354040283529160200191610747565b820191906000526020600020905b81548152906001019060200180831161072a57829003601f168201915b5050505050905090565b600061075c826117d9565b61079b576040517f08c379a000000000000000000000000000000000000000000000000000000000815260040161079290613083565b60405180910390fd5b6004600083815260200190815260200160002060009054906101000a900473ffffffffffffffffffffffffffffffffffffffff169050919050565b60006107e182610b75565b90508073ffffffffffffffffffffffffffffffffffffffff168373ffffffffffffffffffffffffffffffffffffffff161415610852576040517f08c379a000000000000000000000000000000000000000000000000000000000815260040161084990613115565b60405180910390fd5b8073ffffffffffffffffffffffffffffffffffffffff16610871611845565b73ffffffffffffffffffffffffffffffffffffffff1614806108a0575061089f8161089a611845565b6116b5565b5b6108df576040517f08c379a00000000000000000000000000000000000000000000000000000000081526004016108d6906131a7565b60405180910390fd5b6108e9838361184d565b505050565b6108ff6108f9611845565b82611906565b61093e576040517f08c379a000000000000000000000000000000000000000000000000000000000815260040161093590613239565b60405180910390fd5b6109498383836119e4565b505050565b60008311610991576040517f08c379a0000000000000000000000000000000000000000000000000000000008152600401610988906132a5565b60405180910390fd5b61099e8683858785611bca565b5060008690505b8581116109d85760006109b782610b75565b90506109c48133846119e4565b5080806109d0906132f4565b9150506109a5565b50505050505050565b600860009054906101000a900473ffffffffffffffffffffffffffffffffffffffff1673ffffffffffffffffffffffffffffffffffffffff163373ffffffffffffffffffffffffffffffffffffffff1614610a71576040517f08c379a0000000000000000000000000000000000000000000000000000000008152600401610a6890613389565b60405180910390fd5b80600860006101000a81548173ffffffffffffffffffffffffffffffffffffffff021916908373ffffffffffffffffffffffffffffffffffffffff16021790555050565b610ad083838360405180602001604052806000815250611251565b505050565b600a5481565b600860009054906101000a900473ffffffffffffffffffffffffffffffffffffffff1673ffffffffffffffffffffffffffffffffffffffff163373ffffffffffffffffffffffffffffffffffffffff1614610b6b576040517f08c379a0000000000000000000000000000000000000000000000000000000008152600401610b629061341b565b60405180910390fd5b80600b8190555050565b6000806002600084815260200190815260200160002060009054906101000a900473ffffffffffffffffffffffffffffffffffffffff169050600073ffffffffffffffffffffffffffffffffffffffff168173ffffffffffffffffffffffffffffffffffffffff161415610c1e576040517f08c379a0000000000000000000000000000000000000000000000000000000008152600401610c15906134ad565b60405180910390fd5b80915050919050565b60008073ffffffffffffffffffffffffffffffffffffffff168273ffffffffffffffffffffffffffffffffffffffff161415610c98576040517f08c379a0000000000000000000000000000000000000000000000000000000008152600401610c8f9061353f565b60405180910390fd5b600360008373ffffffffffffffffffffffffffffffffffffffff1673ffffffffffffffffffffffffffffffffffffffff168152602001908152602001600020549050919050565b6000821415610d5657600860009054906101000a900473ffffffffffffffffffffffffffffffffffffffff1673ffffffffffffffffffffffffffffffffffffffff166108fc349081150290604051600060405180830381858888f19350505050158015610d50573d6000803e3d6000fd5b50610f67565b80600760006101000a81548173ffffffffffffffffffffffffffffffffffffffff021916908373ffffffffffffffffffffffffffffffffffffffff1602179055506000600a541115610f665784600760009054906101000a900473ffffffffffffffffffffffffffffffffffffffff1673ffffffffffffffffffffffffffffffffffffffff1663dd62ed3e33306040518363ffffffff1660e01b8152600401610e0092919061355f565b602060405180830381865afa158015610e1d573d6000803e3d6000fd5b505050506040513d601f19601f82011682018060405250810190610e41919061359d565b11610e81576040517f08c379a0000000000000000000000000000000000000000000000000000000008152600401610e7890613616565b60405180910390fd5b60006064600a5487610e939190613636565b610e9d91906136bf565b9050600760009054906101000a900473ffffffffffffffffffffffffffffffffffffffff1673ffffffffffffffffffffffffffffffffffffffff166323b872dd33600860009054906101000a900473ffffffffffffffffffffffffffffffffffffffff16846040518463ffffffff1660e01b8152600401610f209392919061374f565b6020604051808303816000875af1158015610f3f573d6000803e3d6000fd5b505050506040513d601f19601f82011682018060405250810190610f63919061379b565b50505b5b60008490505b838111610f9b57610f7e3382612156565b610f888188612174565b8080610f93906132f4565b915050610f6d565b50505050505050565b600860009054906101000a900473ffffffffffffffffffffffffffffffffffffffff1673ffffffffffffffffffffffffffffffffffffffff163373ffffffffffffffffffffffffffffffffffffffff1614611034576040517f08c379a000000000000000000000000000000000000000000000000000000000815260040161102b90613814565b60405180910390fd5b8060098190555050565b60606001805461104d90612fdf565b80601f016020809104026020016040519081016040528092919081815260200182805461107990612fdf565b80156110c65780601f1061109b576101008083540402835291602001916110c6565b820191906000526020600020905b8154815290600101906020018083116110a957829003601f168201915b5050505050905090565b6110d8611845565b73ffffffffffffffffffffffffffffffffffffffff168273ffffffffffffffffffffffffffffffffffffffff161415611146576040517f08c379a000000000000000000000000000000000000000000000000000000000815260040161113d90613880565b60405180910390fd5b8060056000611153611845565b73ffffffffffffffffffffffffffffffffffffffff1673ffffffffffffffffffffffffffffffffffffffff16815260200190815260200160002060008473ffffffffffffffffffffffffffffffffffffffff1673ffffffffffffffffffffffffffffffffffffffff16815260200190815260200160002060006101000a81548160ff0219169083151502179055508173ffffffffffffffffffffffffffffffffffffffff16611200611845565b73ffffffffffffffffffffffffffffffffffffffff167f17307eab39ab6107e8899845ad3d59bd9653f200f220920489ca2b5937696c3183604051611245919061277b565b60405180910390a35050565b61126261125c611845565b83611906565b6112a1576040517f08c379a000000000000000000000000000000000000000000000000000000000815260040161129890613239565b60405180910390fd5b6112ad848484846121e8565b50505050565b60095481565b600860009054906101000a900473ffffffffffffffffffffffffffffffffffffffff1673ffffffffffffffffffffffffffffffffffffffff163373ffffffffffffffffffffffffffffffffffffffff1614611349576040517f08c379a000000000000000000000000000000000000000000000000000000000815260040161134090613814565b60405180910390fd5b80600a8190555050565b60003411611396576040517f08c379a000000000000000000000000000000000000000000000000000000000815260040161138d906138ec565b60405180910390fd5b6113a18482846113e2565b5060008490505b8381116113db5760006113ba82610b75565b90506113c78133846119e4565b5080806113d3906132f4565b9150506113a8565b5050505050565b600080600090508260095460646113f9919061390c565b611403919061390c565b9050600061141086610b75565b90508073ffffffffffffffffffffffffffffffffffffffff166108fc6064843461143a9190613636565b61144491906136bf565b9081150290604051600060405180830381858888f1935050505015801561146f573d6000803e3d6000fd5b50600860009054906101000a900473ffffffffffffffffffffffffffffffffffffffff1673ffffffffffffffffffffffffffffffffffffffff166108fc6064600954346114bc9190613636565b6114c691906136bf565b9081150290604051600060405180830381858888f193505050501580156114f1573d6000803e3d6000fd5b508473ffffffffffffffffffffffffffffffffffffffff166108fc6064863461151a9190613636565b61152491906136bf565b9081150290604051600060405180830381858888f1935050505015801561154f573d6000803e3d6000fd5b506001925050509392505050565b6060611568826117d9565b6115a7576040517f08c379a000000000000000000000000000000000000000000000000000000000815260040161159e906139b2565b60405180910390fd5b60006006600084815260200190815260200160002080546115c790612fdf565b80601f01602080910402602001604051908101604052809291908181526020018280546115f390612fdf565b80156116405780601f1061161557610100808354040283529160200191611640565b820191906000526020600020905b81548152906001019060200180831161162357829003601f168201915b505050505090506000611651612244565b90506000815114156116675781925050506116aa565b60008251111561169c578082604051602001611684929190613a0e565b604051602081830303815290604052925050506116aa565b6116a58461155d565b925050505b919050565b600b5481565b6000600560008473ffffffffffffffffffffffffffffffffffffffff1673ffffffffffffffffffffffffffffffffffffffff16815260200190815260200160002060008373ffffffffffffffffffffffffffffffffffffffff1673ffffffffffffffffffffffffffffffffffffffff16815260200190815260200160002060009054906101000a900460ff16905092915050565b600860009054906101000a900473ffffffffffffffffffffffffffffffffffffffff1681565b60007f01ffc9a7000000000000000000000000000000000000000000000000000000007bffffffffffffffffffffffffffffffffffffffffffffffffffffffff1916827bffffffffffffffffffffffffffffffffffffffffffffffffffffffff1916149050919050565b60008073ffffffffffffffffffffffffffffffffffffffff166002600084815260200190815260200160002060009054906101000a900473ffffffffffffffffffffffffffffffffffffffff1673ffffffffffffffffffffffffffffffffffffffff1614159050919050565b600033905090565b816004600083815260200190815260200160002060006101000a81548173ffffffffffffffffffffffffffffffffffffffff021916908373ffffffffffffffffffffffffffffffffffffffff160217905550808273ffffffffffffffffffffffffffffffffffffffff166118c083610b75565b73ffffffffffffffffffffffffffffffffffffffff167f8c5be1e5ebec7d5bd14f71427d1e84f3dd0314c0f7b2291e5b200ac8c7c3b92560405160405180910390a45050565b6000611911826117d9565b611950576040517f08c379a000000000000000000000000000000000000000000000000000000000815260040161194790613aa4565b60405180910390fd5b600061195b83610b75565b90508073ffffffffffffffffffffffffffffffffffffffff168473ffffffffffffffffffffffffffffffffffffffff1614806119ca57508373ffffffffffffffffffffffffffffffffffffffff166119b284610751565b73ffffffffffffffffffffffffffffffffffffffff16145b806119db57506119da81856116b5565b5b91505092915050565b600073ffffffffffffffffffffffffffffffffffffffff168273ffffffffffffffffffffffffffffffffffffffff161415611a54576040517f08c379a0000000000000000000000000000000000000000000000000000000008152600401611a4b90613b36565b60405180910390fd5b611a5f83838361225b565b611a6a60008261184d565b6001600360008573ffffffffffffffffffffffffffffffffffffffff1673ffffffffffffffffffffffffffffffffffffffff1681526020019081526020016000206000828254611aba919061390c565b925050819055506001600360008473ffffffffffffffffffffffffffffffffffffffff1673ffffffffffffffffffffffffffffffffffffffff1681526020019081526020016000206000828254611b119190613b56565b92505081905550816002600083815260200190815260200160002060006101000a81548173ffffffffffffffffffffffffffffffffffffffff021916908373ffffffffffffffffffffffffffffffffffffffff160217905550808273ffffffffffffffffffffffffffffffffffffffff168473ffffffffffffffffffffffffffffffffffffffff167fddf252ad1be2c89b69c2b068fc378daa952ba7f163c4a11628f55a4df523b3ef60405160405180910390a4505050565b600084600760006101000a81548173ffffffffffffffffffffffffffffffffffffffff021916908373ffffffffffffffffffffffffffffffffffffffff1602179055506000611c1887610b75565b90506000846009546064611c2c919061390c565b611c36919061390c565b905060006009541115611e015785600760009054906101000a900473ffffffffffffffffffffffffffffffffffffffff1673ffffffffffffffffffffffffffffffffffffffff1663dd62ed3e33306040518363ffffffff1660e01b8152600401611ca192919061355f565b602060405180830381865afa158015611cbe573d6000803e3d6000fd5b505050506040513d601f19601f82011682018060405250810190611ce2919061359d565b11611d22576040517f08c379a0000000000000000000000000000000000000000000000000000000008152600401611d1990613616565b60405180910390fd5b600760009054906101000a900473ffffffffffffffffffffffffffffffffffffffff1673ffffffffffffffffffffffffffffffffffffffff166323b872dd33600860009054906101000a900473ffffffffffffffffffffffffffffffffffffffff1660646009548b611d949190613636565b611d9e91906136bf565b6040518463ffffffff1660e01b8152600401611dbc9392919061374f565b6020604051808303816000875af1158015611ddb573d6000803e3d6000fd5b505050506040513d601f19601f82011682018060405250810190611dff919061379b565b505b6000851115611fa45785600760009054906101000a900473ffffffffffffffffffffffffffffffffffffffff1673ffffffffffffffffffffffffffffffffffffffff1663dd62ed3e33306040518363ffffffff1660e01b8152600401611e6892919061355f565b602060405180830381865afa158015611e85573d6000803e3d6000fd5b505050506040513d601f19601f82011682018060405250810190611ea9919061359d565b11611ee9576040517f08c379a0000000000000000000000000000000000000000000000000000000008152600401611ee090613616565b60405180910390fd5b600760009054906101000a900473ffffffffffffffffffffffffffffffffffffffff1673ffffffffffffffffffffffffffffffffffffffff166323b872dd33866064898b611f379190613636565b611f4191906136bf565b6040518463ffffffff1660e01b8152600401611f5f9392919061374f565b6020604051808303816000875af1158015611f7e573d6000803e3d6000fd5b505050506040513d601f19601f82011682018060405250810190611fa2919061379b565b505b60008111156121475785600760009054906101000a900473ffffffffffffffffffffffffffffffffffffffff1673ffffffffffffffffffffffffffffffffffffffff1663dd62ed3e33306040518363ffffffff1660e01b815260040161200b92919061355f565b602060405180830381865afa158015612028573d6000803e3d6000fd5b505050506040513d601f19601f8201168201806040525081019061204c919061359d565b1161208c576040517f08c379a000000000000000000000000000000000000000000000000000000000815260040161208390613616565b60405180910390fd5b600760009054906101000a900473ffffffffffffffffffffffffffffffffffffffff1673ffffffffffffffffffffffffffffffffffffffff166323b872dd33846064858b6120da9190613636565b6120e491906136bf565b6040518463ffffffff1660e01b815260040161210293929190613bac565b6020604051808303816000875af1158015612121573d6000803e3d6000fd5b505050506040513d601f19601f82011682018060405250810190612145919061379b565b505b60019250505095945050505050565b612170828260405180602001604052806000815250612260565b5050565b61217d826117d9565b6121bc576040517f08c379a00000000000000000000000000000000000000000000000000000000081526004016121b390613c55565b60405180910390fd5b806006600084815260200190815260200160002090805190602001906121e3929190612624565b505050565b6121f38484846119e4565b6121ff848484846122bb565b61223e576040517f08c379a000000000000000000000000000000000000000000000000000000000815260040161223590613ce7565b60405180910390fd5b50505050565b606060405180602001604052806000815250905090565b505050565b61226a8383612443565b61227760008484846122bb565b6122b6576040517f08c379a00000000000000000000000000000000000000000000000000000000081526004016122ad90613ce7565b60405180910390fd5b505050565b60006122dc8473ffffffffffffffffffffffffffffffffffffffff16612611565b15612436578373ffffffffffffffffffffffffffffffffffffffff1663150b7a02612305611845565b8786866040518563ffffffff1660e01b81526004016123279493929190613d5c565b6020604051808303816000875af192505050801561236357506040513d601f19601f820116820180604052508101906123609190613dbd565b60015b6123e6573d8060008114612393576040519150601f19603f3d011682016040523d82523d6000602084013e612398565b606091505b506000815114156123de576040517f08c379a00000000000000000000000000000000000000000000000000000000081526004016123d590613ce7565b60405180910390fd5b805181602001fd5b63150b7a0260e01b7bffffffffffffffffffffffffffffffffffffffffffffffffffffffff1916817bffffffffffffffffffffffffffffffffffffffffffffffffffffffff19161491505061243b565b600190505b949350505050565b600073ffffffffffffffffffffffffffffffffffffffff168273ffffffffffffffffffffffffffffffffffffffff1614156124b3576040517f08c379a00000000000000000000000000000000000000000000000000000000081526004016124aa90613e36565b60405180910390fd5b6124bc816117d9565b156124fc576040517f08c379a00000000000000000000000000000000000000000000000000000000081526004016124f390613ea2565b60405180910390fd5b6125086000838361225b565b6001600360008473ffffffffffffffffffffffffffffffffffffffff1673ffffffffffffffffffffffffffffffffffffffff16815260200190815260200160002060008282546125589190613b56565b92505081905550816002600083815260200190815260200160002060006101000a81548173ffffffffffffffffffffffffffffffffffffffff021916908373ffffffffffffffffffffffffffffffffffffffff160217905550808273ffffffffffffffffffffffffffffffffffffffff16600073ffffffffffffffffffffffffffffffffffffffff167fddf252ad1be2c89b69c2b068fc378daa952ba7f163c4a11628f55a4df523b3ef60405160405180910390a45050565b600080823b905060008111915050919050565b82805461263090612fdf565b90600052602060002090601f0160209004810192826126525760008555612699565b82601f1061266b57805160ff1916838001178555612699565b82800160010185558215612699579182015b8281111561269857825182559160200191906001019061267d565b5b5090506126a691906126aa565b5090565b5b808211156126c35760008160009055506001016126ab565b5090565b6000604051905090565b600080fd5b600080fd5b60007fffffffff0000000000000000000000000000000000000000000000000000000082169050919050565b612710816126db565b811461271b57600080fd5b50565b60008135905061272d81612707565b92915050565b600060208284031215612749576127486126d1565b5b60006127578482850161271e565b91505092915050565b60008115159050919050565b61277581612760565b82525050565b6000602082019050612790600083018461276c565b92915050565b600081519050919050565b600082825260208201905092915050565b60005b838110156127d05780820151818401526020810190506127b5565b838111156127df576000848401525b50505050565b6000601f19601f8301169050919050565b600061280182612796565b61280b81856127a1565b935061281b8185602086016127b2565b612824816127e5565b840191505092915050565b6000602082019050818103600083015261284981846127f6565b905092915050565b6000819050919050565b61286481612851565b811461286f57600080fd5b50565b6000813590506128818161285b565b92915050565b60006020828403121561289d5761289c6126d1565b5b60006128ab84828501612872565b91505092915050565b600073ffffffffffffffffffffffffffffffffffffffff82169050919050565b60006128df826128b4565b9050919050565b6128ef816128d4565b82525050565b600060208201905061290a60008301846128e6565b92915050565b612919816128d4565b811461292457600080fd5b50565b60008135905061293681612910565b92915050565b60008060408385031215612953576129526126d1565b5b600061296185828601612927565b925050602061297285828601612872565b9150509250929050565b600080600060608486031215612995576129946126d1565b5b60006129a386828701612927565b93505060206129b486828701612927565b92505060406129c586828701612872565b9150509250925092565b60006129da826128b4565b9050919050565b6129ea816129cf565b81146129f557600080fd5b50565b600081359050612a07816129e1565b92915050565b60008060008060008060c08789031215612a2a57612a296126d1565b5b6000612a3889828a01612872565b9650506020612a4989828a01612872565b9550506040612a5a89828a01612872565b9450506060612a6b89828a01612872565b9350506080612a7c89828a01612927565b92505060a0612a8d89828a016129f8565b9150509295509295509295565b600060208284031215612ab057612aaf6126d1565b5b6000612abe848285016129f8565b91505092915050565b612ad081612851565b82525050565b6000602082019050612aeb6000830184612ac7565b92915050565b600060208284031215612b0757612b066126d1565b5b6000612b1584828501612927565b91505092915050565b600080fd5b600080fd5b7f4e487b7100000000000000000000000000000000000000000000000000000000600052604160045260246000fd5b612b60826127e5565b810181811067ffffffffffffffff82111715612b7f57612b7e612b28565b5b80604052505050565b6000612b926126c7565b9050612b9e8282612b57565b919050565b600067ffffffffffffffff821115612bbe57612bbd612b28565b5b612bc7826127e5565b9050602081019050919050565b82818337600083830152505050565b6000612bf6612bf184612ba3565b612b88565b905082815260208101848484011115612c1257612c11612b23565b5b612c1d848285612bd4565b509392505050565b600082601f830112612c3a57612c39612b1e565b5b8135612c4a848260208601612be3565b91505092915050565b60008060008060008060c08789031215612c7057612c6f6126d1565b5b600087013567ffffffffffffffff811115612c8e57612c8d6126d6565b5b612c9a89828a01612c25565b9650506020612cab89828a01612872565b9550506040612cbc89828a01612872565b9450506060612ccd89828a01612872565b9350506080612cde89828a01612872565b92505060a0612cef89828a01612927565b9150509295509295509295565b612d0581612760565b8114612d1057600080fd5b50565b600081359050612d2281612cfc565b92915050565b60008060408385031215612d3f57612d3e6126d1565b5b6000612d4d85828601612927565b9250506020612d5e85828601612d13565b9150509250929050565b600067ffffffffffffffff821115612d8357612d82612b28565b5b612d8c826127e5565b9050602081019050919050565b6000612dac612da784612d68565b612b88565b905082815260208101848484011115612dc857612dc7612b23565b5b612dd3848285612bd4565b509392505050565b600082601f830112612df057612def612b1e565b5b8135612e00848260208601612d99565b91505092915050565b60008060008060808587031215612e2357612e226126d1565b5b6000612e3187828801612927565b9450506020612e4287828801612927565b9350506040612e5387828801612872565b925050606085013567ffffffffffffffff811115612e7457612e736126d6565b5b612e8087828801612ddb565b91505092959194509250565b60008060008060808587031215612ea657612ea56126d1565b5b6000612eb487828801612872565b9450506020612ec587828801612872565b9350506040612ed687828801612872565b9250506060612ee7878288016129f8565b91505092959194509250565b600080600060608486031215612f0c57612f0b6126d1565b5b6000612f1a86828701612872565b9350506020612f2b868287016129f8565b9250506040612f3c86828701612872565b9150509250925092565b60008060408385031215612f5d57612f5c6126d1565b5b6000612f6b85828601612927565b9250506020612f7c85828601612927565b9150509250929050565b612f8f816129cf565b82525050565b6000602082019050612faa6000830184612f86565b92915050565b7f4e487b7100000000000000000000000000000000000000000000000000000000600052602260045260246000fd5b60006002820490506001821680612ff757607f821691505b6020821081141561300b5761300a612fb0565b5b50919050565b7f4552433732313a20617070726f76656420717565727920666f72206e6f6e657860008201527f697374656e7420746f6b656e0000000000000000000000000000000000000000602082015250565b600061306d602c836127a1565b915061307882613011565b604082019050919050565b6000602082019050818103600083015261309c81613060565b9050919050565b7f4552433732313a20617070726f76616c20746f2063757272656e74206f776e6560008201527f7200000000000000000000000000000000000000000000000000000000000000602082015250565b60006130ff6021836127a1565b915061310a826130a3565b604082019050919050565b6000602082019050818103600083015261312e816130f2565b9050919050565b7f4552433732313a20617070726f76652063616c6c6572206973206e6f74206f7760008201527f6e6572206e6f7220617070726f76656420666f7220616c6c0000000000000000602082015250565b60006131916038836127a1565b915061319c82613135565b604082019050919050565b600060208201905081810360008301526131c081613184565b9050919050565b7f4552433732313a207472616e736665722063616c6c6572206973206e6f74206f60008201527f776e6572206e6f7220617070726f766564000000000000000000000000000000602082015250565b60006132236031836127a1565b915061322e826131c7565b604082019050919050565b6000602082019050818103600083015261325281613216565b9050919050565b7f416d6f756e742073686f756c6420626520677261746572207468656e20302000600082015250565b600061328f601f836127a1565b915061329a82613259565b602082019050919050565b600060208201905081810360008301526132be81613282565b9050919050565b7f4e487b7100000000000000000000000000000000000000000000000000000000600052601160045260246000fd5b60006132ff82612851565b91507fffffffffffffffffffffffffffffffffffffffffffffffffffffffffffffffff821415613332576133316132c5565b5b600182019050919050565b7f4f6e6c79206f776e65722063616e207365742074686520616464726573730000600082015250565b6000613373601e836127a1565b915061337e8261333d565b602082019050919050565b600060208201905081810360008301526133a281613366565b9050919050565b7f4f6e6c79206f776e65722063616e207365742074686520726566657272616c2060008201527f6665657300000000000000000000000000000000000000000000000000000000602082015250565b60006134056024836127a1565b9150613410826133a9565b604082019050919050565b60006020820190508181036000830152613434816133f8565b9050919050565b7f4552433732313a206f776e657220717565727920666f72206e6f6e657869737460008201527f656e7420746f6b656e0000000000000000000000000000000000000000000000602082015250565b60006134976029836127a1565b91506134a28261343b565b604082019050919050565b600060208201905081810360008301526134c68161348a565b9050919050565b7f4552433732313a2062616c616e636520717565727920666f7220746865207a6560008201527f726f206164647265737300000000000000000000000000000000000000000000602082015250565b6000613529602a836127a1565b9150613534826134cd565b604082019050919050565b600060208201905081810360008301526135588161351c565b9050919050565b600060408201905061357460008301856128e6565b61358160208301846128e6565b9392505050565b6000815190506135978161285b565b92915050565b6000602082840312156135b3576135b26126d1565b5b60006135c184828501613588565b91505092915050565b7f506c6561736520616c6c6f772066756e64206669727374000000000000000000600082015250565b60006136006017836127a1565b915061360b826135ca565b602082019050919050565b6000602082019050818103600083015261362f816135f3565b9050919050565b600061364182612851565b915061364c83612851565b9250817fffffffffffffffffffffffffffffffffffffffffffffffffffffffffffffffff0483118215151615613685576136846132c5565b5b828202905092915050565b7f4e487b7100000000000000000000000000000000000000000000000000000000600052601260045260246000fd5b60006136ca82612851565b91506136d583612851565b9250826136e5576136e4613690565b5b828204905092915050565b6000819050919050565b600061371561371061370b846128b4565b6136f0565b6128b4565b9050919050565b6000613727826136fa565b9050919050565b60006137398261371c565b9050919050565b6137498161372e565b82525050565b600060608201905061376460008301866128e6565b6137716020830185613740565b61377e6040830184612ac7565b949350505050565b60008151905061379581612cfc565b92915050565b6000602082840312156137b1576137b06126d1565b5b60006137bf84828501613786565b91505092915050565b7f4f6e6c79206f776e65722063616e20736574206372656174696f6e2066656573600082015250565b60006137fe6020836127a1565b9150613809826137c8565b602082019050919050565b6000602082019050818103600083015261382d816137f1565b9050919050565b7f4552433732313a20617070726f766520746f2063616c6c657200000000000000600082015250565b600061386a6019836127a1565b915061387582613834565b602082019050919050565b600060208201905081810360008301526138998161385d565b9050919050565b7f4d7573742050726f7669646520416d6f756e7400000000000000000000000000600082015250565b60006138d66013836127a1565b91506138e1826138a0565b602082019050919050565b60006020820190508181036000830152613905816138c9565b9050919050565b600061391782612851565b915061392283612851565b925082821015613935576139346132c5565b5b828203905092915050565b7f45524337323155524953746f726167653a2055524920717565727920666f722060008201527f6e6f6e6578697374656e7420746f6b656e000000000000000000000000000000602082015250565b600061399c6031836127a1565b91506139a782613940565b604082019050919050565b600060208201905081810360008301526139cb8161398f565b9050919050565b600081905092915050565b60006139e882612796565b6139f281856139d2565b9350613a028185602086016127b2565b80840191505092915050565b6000613a1a82856139dd565b9150613a2682846139dd565b91508190509392505050565b7f4552433732313a206f70657261746f7220717565727920666f72206e6f6e657860008201527f697374656e7420746f6b656e0000000000000000000000000000000000000000602082015250565b6000613a8e602c836127a1565b9150613a9982613a32565b604082019050919050565b60006020820190508181036000830152613abd81613a81565b9050919050565b7f4552433732313a207472616e7366657220746f20746865207a65726f2061646460008201527f7265737300000000000000000000000000000000000000000000000000000000602082015250565b6000613b206024836127a1565b9150613b2b82613ac4565b604082019050919050565b60006020820190508181036000830152613b4f81613b13565b9050919050565b6000613b6182612851565b9150613b6c83612851565b9250827fffffffffffffffffffffffffffffffffffffffffffffffffffffffffffffffff03821115613ba157613ba06132c5565b5b828201905092915050565b6000606082019050613bc160008301866128e6565b613bce60208301856128e6565b613bdb6040830184612ac7565b949350505050565b7f45524337323155524953746f726167653a2055524920736574206f66206e6f6e60008201527f6578697374656e7420746f6b656e000000000000000000000000000000000000602082015250565b6000613c3f602e836127a1565b9150613c4a82613be3565b604082019050919050565b60006020820190508181036000830152613c6e81613c32565b9050919050565b7f4552433732313a207472616e7366657220746f206e6f6e20455243373231526560008201527f63656976657220696d706c656d656e7465720000000000000000000000000000602082015250565b6000613cd16032836127a1565b9150613cdc82613c75565b604082019050919050565b60006020820190508181036000830152613d0081613cc4565b9050919050565b600081519050919050565b600082825260208201905092915050565b6000613d2e82613d07565b613d388185613d12565b9350613d488185602086016127b2565b613d51816127e5565b840191505092915050565b6000608082019050613d7160008301876128e6565b613d7e60208301866128e6565b613d8b6040830185612ac7565b8181036060830152613d9d8184613d23565b905095945050505050565b600081519050613db781612707565b92915050565b600060208284031215613dd357613dd26126d1565b5b6000613de184828501613da8565b91505092915050565b7f4552433732313a206d696e7420746f20746865207a65726f2061646472657373600082015250565b6000613e206020836127a1565b9150613e2b82613dea565b602082019050919050565b60006020820190508181036000830152613e4f81613e13565b9050919050565b7f4552433732313a20746f6b656e20616c7265616479206d696e74656400000000600082015250565b6000613e8c601c836127a1565b9150613e9782613e56565b602082019050919050565b60006020820190508181036000830152613ebb81613e7f565b905091905056fea26469706673582212209b00684f9ba7a619d089557c61bbbc6506379117cd35aa76f2497e318a3e956864736f6c634300080c0033",
  "immutableReferences": {},
  "source": "/**\r\n *Submitted for verification at BscScan.com on 2021-12-21\r\n*/\r\n\r\n/**\r\n *Submitted for verification at BscScan.com on 2021-09-07\r\n*/\r\n\r\n/**\r\n *Submitted for verification at BscScan.com on 2021-08-18\r\n*/\r\n\r\n// SPDX-License-Identifier: MIT\r\npragma solidity ^0.8.0;\r\nimport \"./Main.sol\";\r\n\r\ncontract Multi is ERC721 {\r\n\tusing SafeMath\r\n\tfor uint256;\r\n\tIBEP20 dart;\r\n\taddress payable public adminAddress;\r\n\tconstructor() payable ERC721('Multi', 'Multi') {\r\n\t\tadminAddress = payable(msg.sender);\r\n\t\tsellingFess = 5;\r\n\t}\r\n    uint256 public sellingFess;\r\n    uint256 public creationFess = 0;\r\n    uint256 public referenceFees = 1;\r\n\r\n    function setreferralFees(uint256 _referralFees) public {\r\n        require(msg.sender == adminAddress, \"Only owner can set the referral fees\");\r\n        referenceFees = _referralFees;\r\n    }\r\n\r\n\tfunction setAdminAddress(address payable _adminAdd) public {\r\n\t\trequire(msg.sender == adminAddress, \"Only owner can set the address\");\r\n\t\tadminAddress = _adminAdd;\r\n\t}\r\n\r\n\tfunction setCreatonFees(uint256 _creationFess) public {\r\n\t\trequire(msg.sender == adminAddress, \"Only owner can set creation fees\");\r\n\t\tcreationFess = _creationFess;\r\n\t}\r\n\tfunction setSellingFees(uint256 _sellingFess) public {\r\n\t\trequire(msg.sender == adminAddress, \"Only owner can set creation fees\");\r\n\t\tsellingFess = _sellingFess;\r\n\t}\r\n\tbool const = false;\r\n\tmodifier onlyOwner {\r\n\t\trequire(const == true);\r\n\t\t_;\r\n\t}\r\n\r\n\tfunction mintNFT(string memory _tokenURI, uint256 value, uint256 startId, uint256 endId, uint256 state, address _paymentCurrency) public payable {\r\n\t\tif(state == 0) {\r\n\t\t\tadminAddress.transfer(msg.value);\r\n\t\t} else {\r\n\t\t\tdart = IBEP20(_paymentCurrency);\r\n\t\t\tif(creationFess > 0) {\r\n\t\t\t\trequire(dart.allowance(msg.sender, address(this)) > value, \"Please allow fund first\");\r\n\t\t\t\tuint256 amount = (value * creationFess) / 100;\r\n\t\t\t\tdart.transferFrom(msg.sender, adminAddress, amount);\r\n\t\t\t}\r\n\t\t}\r\n\t\tfor(uint256 i = startId; i <= endId; i++) {\r\n\t\t\t_safeMint(msg.sender, i);\r\n            _setTokenURI(i, _tokenURI);\r\n\t\t}\r\n\t}\r\n\tfunction buyWithBNB(uint256 _from, uint256 _to, uint256 _royalties, address payable artist) public payable {\r\n\t\trequire(msg.value > 0, \"Must Provide Amount\");\r\n\t    claimAmount(_from, artist, _royalties);\r\n        for(uint256 i = _from; i <= _to; i++) {\r\n            address  _owner = ownerOf(i);\r\n            _transfer(_owner, msg.sender, i);\r\n        }\r\n\t}\r\n\r\n\tfunction buyWithTokens(uint256 _from, uint256 _to, uint256 _royalties, uint256 buyAmount, address paymentCurrency, address payable _artist) public {\r\n\t\t\trequire(buyAmount > 0, \"Amount should be grater then 0 \");\r\n\t\t\tcalclulateAmount(_from, paymentCurrency, buyAmount, _royalties, _artist);\r\n\t\t\tfor(uint256 i = _from; i <= _to; i++) {\r\n\t\t\t\taddress _owner = (ownerOf(i));\r\n\t\t\t\t_transfer(_owner, msg.sender, i);\r\n\t\t\t}\r\n\t}\r\n\tfunction calclulateAmount(uint256 tokenId, address paymentCurrency, uint256 buyAmount, uint256 _royalties, address payable _artist) internal returns(bool){\r\n\t\tdart = IBEP20(paymentCurrency);\r\n\t\taddress _owner = ownerOf(tokenId);\r\n\t\tuint256 owner_fees = 0;\r\n\t\towner_fees = uint256(100) - sellingFess - _royalties;\r\n\t\tif(sellingFess > 0) {\r\n\t\t\trequire(dart.allowance(msg.sender, address(this)) > buyAmount, \"Please allow fund first\");\r\n\t\t\tdart.transferFrom(msg.sender, adminAddress, (buyAmount * sellingFess) / 100);\r\n\t\t}\r\n\t\tif(_royalties > 0) {\r\n\t\t\trequire(dart.allowance(msg.sender, address(this)) > buyAmount, \"Please allow fund first\");\r\n\t\t\tdart.transferFrom(msg.sender, _artist, (buyAmount * _royalties) / 100);\r\n\t\t}\r\n\t\tif(owner_fees > 0) {\r\n\t\t\trequire(dart.allowance(msg.sender, address(this)) > buyAmount, \"Please allow fund first\");\r\n\t\t\tdart.transferFrom(msg.sender, _owner, (buyAmount * owner_fees) / 100);\r\n\t\t}\r\n        return true;\r\n\t}\r\n\tfunction claimAmount(uint256 tokenId, address payable artist, uint256 _royalties) public payable returns(bool) {\r\n\t\tuint256 owner_fees = 0;\r\n\t\towner_fees = uint256(100) - sellingFess - _royalties;\r\n\t\taddress payable _owner = payable(ownerOf(tokenId));\r\n\t\t_owner.transfer((msg.value * owner_fees) / (100));\r\n\t\tadminAddress.transfer((msg.value * sellingFess) / (100));\r\n\t\tartist.transfer((msg.value * _royalties) / (100));\r\n        return true;\r\n\t}\r\n}",
  "sourcePath": "E:\\Blockchain\\ContractByTruffle\\contracts\\Multiple.sol",
  "compiler": {
    "name": "solc",
    "version": "0.8.12+commit.f00d7308.Emscripten.clang"
  },
  "schemaVersion": "3.4.6",
  "updatedAt": "2022-03-18T13:29:04.293Z",
  "devdoc": {
    "kind": "dev",
    "methods": {
      "approve(address,uint256)": {
        "details": "See {IERC721-approve}."
      },
      "balanceOf(address)": {
        "details": "See {IERC721-balanceOf}."
      },
      "getApproved(uint256)": {
        "details": "See {IERC721-getApproved}."
      },
      "isApprovedForAll(address,address)": {
        "details": "See {IERC721-isApprovedForAll}."
      },
      "name()": {
        "details": "See {IERC721Metadata-name}."
      },
      "ownerOf(uint256)": {
        "details": "See {IERC721-ownerOf}."
      },
      "safeTransferFrom(address,address,uint256)": {
        "details": "See {IERC721-safeTransferFrom}."
      },
      "safeTransferFrom(address,address,uint256,bytes)": {
        "details": "See {IERC721-safeTransferFrom}."
      },
      "setApprovalForAll(address,bool)": {
        "details": "See {IERC721-setApprovalForAll}."
      },
      "supportsInterface(bytes4)": {
        "details": "See {IERC165-supportsInterface}."
      },
      "symbol()": {
        "details": "See {IERC721Metadata-symbol}."
      },
      "tokenURI(uint256)": {
        "details": "Returns the Uniform Resource Identifier (URI) for `tokenId` token."
      },
      "transferFrom(address,address,uint256)": {
        "details": "See {IERC721-transferFrom}."
      }
    },
    "version": 1
  },
  "userdoc": {
    "kind": "user",
    "methods": {},
    "version": 1
  }
}